{
  "contractName": "TodoList",
  "abi": [
    {
      "inputs": [],
      "payable": false,
      "stateMutability": "nonpayable",
      "type": "constructor"
    },
    {
      "constant": true,
      "inputs": [],
      "name": "taskCount",
      "outputs": [
        {
          "internalType": "uint256",
          "name": "",
          "type": "uint256"
        }
      ],
      "payable": false,
      "stateMutability": "view",
      "type": "function"
    },
    {
      "constant": true,
      "inputs": [
        {
          "internalType": "uint256",
          "name": "",
          "type": "uint256"
        }
      ],
      "name": "tasks",
      "outputs": [
        {
          "internalType": "uint256",
          "name": "id",
          "type": "uint256"
        },
        {
          "internalType": "string",
          "name": "content",
          "type": "string"
        },
        {
          "internalType": "bool",
          "name": "completed",
          "type": "bool"
        }
      ],
      "payable": false,
      "stateMutability": "view",
      "type": "function"
    },
    {
      "constant": false,
      "inputs": [
        {
          "internalType": "string",
          "name": "_content",
          "type": "string"
        }
      ],
      "name": "createTask",
      "outputs": [],
      "payable": false,
      "stateMutability": "nonpayable",
      "type": "function"
    }
  ],
  "bytecode": "0x60806040526000805534801561001457600080fd5b5060408051808201909152601081526f26bc9033b2b732b9b4b9903a30b9b59760811b602082015261004e906001600160e01b0361005316565b61015a565b60008054600190810180835560408051606081018252828152602080820187815282840187905293865284815291909420845181559151805192936100a0939085019291909101906100bf565b50604091909101516002909101805460ff191691151591909117905550565b828054600181600116156101000203166002900490600052602060002090601f016020900481019282601f1061010057805160ff191683800117855561012d565b8280016001018555821561012d579182015b8281111561012d578251825591602001919060010190610112565b5061013992915061013d565b5090565b61015791905b808211156101395760008155600101610143565b90565b6103a0806101696000396000f3fe608060405234801561001057600080fd5b50600436106100415760003560e01c8063111002aa146100465780638d977672146100ee578063b6cb58a514610195575b600080fd5b6100ec6004803603602081101561005c57600080fd5b81019060208101813564010000000081111561007757600080fd5b82018360208201111561008957600080fd5b803590602001918460018302840111640100000000831117156100ab57600080fd5b91908080601f0160208091040260200160405190810160405280939291908181526020018383808284376000920191909152509295506101af945050505050565b005b61010b6004803603602081101561010457600080fd5b503561021b565b604051808481526020018060200183151515158152602001828103825284818151815260200191508051906020019080838360005b83811015610158578181015183820152602001610140565b50505050905090810190601f1680156101855780820380516001836020036101000a031916815260200191505b5094505050505060405180910390f35b61019d6102ca565b60408051918252519081900360200190f35b60008054600190810180835560408051606081018252828152602080820187815282840187905293865284815291909420845181559151805192936101fc939085019291909101906102d0565b50604091909101516002909101805460ff191691151591909117905550565b600160208181526000928352604092839020805481840180548651600296821615610100026000190190911695909504601f810185900485028601850190965285855290949193929091908301828280156102b75780601f1061028c576101008083540402835291602001916102b7565b820191906000526020600020905b81548152906001019060200180831161029a57829003601f168201915b5050506002909301549192505060ff1683565b60005481565b828054600181600116156101000203166002900490600052602060002090601f016020900481019282601f1061031157805160ff191683800117855561033e565b8280016001018555821561033e579182015b8281111561033e578251825591602001919060010190610323565b5061034a92915061034e565b5090565b61036891905b8082111561034a5760008155600101610354565b9056fea265627a7a723158204551781b16649997a5e4413d64469fa85fbf6072dcc6dd0e6464f06728657c7e64736f6c63430005100032",
  "source": "// SPDX-License-Identifier: MIT\npragma solidity ^0.5.0;\n\ncontract TodoList {\n    uint public taskCount = 0;\n\n    struct Task {\n        uint id;\n        string content;\n        bool completed;\n    }\n\n    mapping(uint => Task) public tasks;\n\n    constructor() public {\n        createTask(\"My genesis task.\");\n    }\n\n    function createTask(string memory _content) public {\n        taskCount ++;\n        tasks[taskCount] = Task(taskCount, _content, false);\n    }\n\n}\n",
  "sourcePath": "/Users/jeramievillarmia/Documents/eth-todo-list/contracts/TodoList.sol",
  "compiler": {
    "name": "solc",
    "version": "0.5.16+commit.9c3226ce.Emscripten.clang"
  },
  "schemaVersion": "3.4.3",
  "updatedAt": "2022-01-08T06:39:33.329Z",
  "networkType": "ethereum",
  "devdoc": {
    "methods": {}
  },
  "userdoc": {
    "methods": {}
  }
}